:100000000C9435010C9466010C9466010C94660105
:100010000C9466010C9466010C9466010C946601C4
:100020000C9466010C9466010C9466010C946601B4
:100030000C9466010C9466010C9466010C946601A4
:100040000C9466010C94A9050C9466010C9466014D
:100050000C9466010C9466010C9466010C94750472
:100060000C9466010C94E9040C94BF040C94660192
:100070000C9466010C9466010C9466010C94660164
:100080000C947B050C9466010C9466010C9466013B
:100090000C9466010C9466010C9466010C94660144
:1000A0000C9466010C9466010C944D050C94660149
:1000B0000C9466010C9466010C9466010C941F0567
:1000C0000C9466010C9466010C9466010C94660114
:1000D0000C9466010C9466010C9466010C94660104
:1000E0000C9466010C9494010C9490010C941C06E1
:1000F0000C94B4020C94D7020C94B9010C94E50250
:100100000C94C7010C949B010C94AB010C94C1019D
:100110000C94A5010C94AF010C941D030C94870260
:100120000C94C6010C946A030C94CB010C948C01C2
:100130000C9486010C94BD010C94B3010C949801AD
:100140000C94A1010C94C30200002100240027009C
:100150002A002D00300033000101000004010701D6
:100160000A0100002200250028002B002E0031008B
:10017000340002010000050108010B01000020000D
:100180002300260029002C002F003200000100006F
:10019000030106010901050505050705080808080A
:1001A000020202020A0A080804040404010101010F
:1001B000010101010303030303030303040707070A
:1001C0000C0C0C0C0C0C0C0C0202020206060606AF
:1001D000060606060B0B0B0B0B0B0B0B010210207C
:1001E000200808102040102040800201020108046D
:1001F0000201010204081020408080402010080401
:100200000201800402018040201008040201080459
:10021000020101020408102040800102040810209D
:10022000408000000A0B02090C0D0E0807030401B0
:1002300000000000000000000000000000000000BE
:10024000000000000000000000000000000012118B
:10025000100000000000000000000000000000008E
:1002600000000000000000001C0611241FBECFEF9C
:10027000D1E2DEBFCDBF00E00CBF12E0A0E0B2E0F3
:10028000E6E4F3E100E00BBF02C007900D92A2325A
:10029000B107D9F723E0A2E2B2E001C01D92A23675
:1002A000B207E1F711E0C5E3D1E000E006C0219715
:1002B0000109802FFE010E949209C433D10780E01A
:1002C0000807A9F70E9479060C94A1090C94000074
:1002D0008150823108F05AC0E82FF0E08827EC58AE
:1002E000FE4F8F4F0C9492099401980186018C0166
:1002F0009001C6019B01A101A501AB01AF01B301B2
:10030000B901BD01C601C101C701CB0180918000C7
:100310008F77809380000895809180008F7DF9CF42
:1003200080918000877FF5CF84B58F7784BD089555
:1003300084B58F7DFBCF8091B0008F778093B00024
:1003400008958091B0008F7DF9CF809190008F77D4
:10035000809390000895809190008F7DF9CF8091D7
:100360009000877FF5CF8091A0008F778093A000C9
:1003700008958091A0008F7DF9CF8091A000877FA4
:10038000F5CF809120018F7780932001089580918F
:1003900020018F7DF9CF80912001877FF5CFCF930A
:1003A000DF93282F30E0F901EE5DFD4F8491F901D4
:1003B000E452FE4FD491F901EA56FE4FC491CC238A
:1003C000A1F081110E946801EC2FF0E0EE0FFF1FF9
:1003D000E458FE4FA591B491EC91ED2381E090E0BB
:1003E00009F480E0DF91CF91089580E090E0FACFAA
:1003F0001F93CF93DF93282F30E0F901EE5DFD4F7F
:100400008491F901E452FE4FD491F901EA56FE4F6E
:10041000C491CC23A9F0162F81110E946801EC2F02
:10042000F0E0EE0FFF1FEE59FE4FA591B4918FB78C
:10043000F894EC91111108C0D095DE23DC938FBFA6
:10044000DF91CF911F910895DE2BF8CFCF93DF93EB
:1004500090E0FC01E452FE4F24918A569E4FFC012D
:1004600084918823C9F090E0880F991FFC01E85B14
:10047000FE4FA591B491FC01EE59FE4FC591D49168
:1004800061110DC09FB7F8948C91209582238C93B5
:100490008881282328839FBFDF91CF910895623000
:1004A00051F49FB7F8943C91822F809583238C93CD
:1004B000E8812E2BEFCF8FB7F894EC912E2B2C9355
:1004C0008FBFEACF3FB7F89480912D0290912E0212
:1004D000A0912F02B091300226B5A89B05C02F3FF6
:1004E00019F00196A11DB11D3FBFBA2FA92F982F5A
:1004F0008827BC01CD01620F711D811D911D42E055
:10050000660F771F881F991F4A95D1F70895AF92FC
:10051000BF92CF92DF92EF92FF920F931F93CF93F0
:10052000DF936C017B018B01040F151FEB015E0152
:10053000AE18BF08C017D10759F06991D601ED91E7
:10054000FC910190F081E02DC6011995892B79F776
:10055000C501DF91CF911F910F91FF90EF90DF9038
:10056000CF90BF90AF900895FC01538D448D252FFF
:1005700030E0842F90E0821B930B541710F0CF963D
:10058000089501970895FC01918D828D981761F06F
:10059000A28DAE0FBF2FB11D5D968C91928D9F5F86
:1005A0009F73928F90E008958FEF9FEF0895FC0165
:1005B000918D828D981731F0828DE80FF11D858D18
:1005C00090E008958FEF9FEF0895FC01918D228DAB
:1005D000892F90E0805C9F4F821B91098F73992730
:1005E000089581E392E00E94E50221E0892B09F45D
:1005F00020E0822F0895FC01A48DA80FB92FB11D12
:10060000A35ABF4F2C91848D90E001968F73992748
:10061000848FA689B7892C93A089B1898C91837026
:1006200080648C93938D848D981306C00288F3891F
:10063000E02D80818F7D80830895EF92FF920F934C
:100640001F93CF93DF93EC0181E0888F9B8D8C8D7E
:1006500098131AC0E889F989808185FF15C09FB772
:10066000F894EE89FF896083E889F9898081837035
:10067000806480839FBF81E090E0DF91CF911F91E4
:100680000F91FF90EF900895F62E0B8D10E00F5F05
:100690001F4F0F731127E02E8C8D8E110CC00FB6DB
:1006A00007FCFACFE889F989808185FFF5CFCE0173
:1006B0000E94FB02F1CFEB8DEC0FFD2FF11DE35AF1
:1006C000FF4FF0829FB7F8940B8FEA89FB898081F6
:1006D0008062CFCFCF93DF93EC01888D8823B9F070
:1006E000AA89BB89E889F9898C9185FD03C080813D
:1006F00086FD0DC00FB607FCF7CF8C9185FFF2CFBA
:10070000808185FFEDCFCE010E94FB02E9CFDF9112
:10071000CF91089580E090E0892B29F00E94F102AA
:1007200081110E94000080E090E0892B49F080E078
:1007300090E0892B29F00E94000081110E940000A6
:1007400080E090E0892B49F080E090E0892B29F04F
:100750000E94000081110E94000080E090E0892B3F
:1007600049F080E090E0892B29F00E94000081117F
:100770000C9400000895AF92BF92CF92DF92EF9257
:10078000FF920F931F93CF93DF936B017A01EC01DC
:10079000CE5DDD4F28813CE0389F8001399F100DF0
:1007A0001124A0905E03B12C27FF1FC0FB01118212
:1007B000108288818F5F888388819801280F311D7E
:1007C00087FD3A95F6012A153B051CF488818C308B
:1007D000C4F180819181049680349C4908F473C0EF
:1007E000F60180819181049670C088819801280F5C
:1007F000311D87FD3A952A153B05DCF68881A80155
:10080000480F511D87FD5A95FA01EE0FFF1FE40FA7
:10081000F51FE253FD4F808186FFCBCF8881F80121
:10082000E80FF11D87FDFA95CF01EE0FFF1FE80FCE
:10083000F91FE253FD4F808160E08F730E94F80141
:10084000B8CF808191812881A801420F511D27FDD9
:100850005A959A01FA01EE0FFF1FE20FF31FE253C0
:10086000FD4F21813281820F931FF7019183808395
:1008700088819801280F311D87FD3A95F901EE0F07
:10088000FF1FE20FF31FE253FD4F808186FF22C05E
:100890008881080F111D87FD1A95F801EE0FFF1FC3
:1008A000E00FF11FE253FD4F808161E08F73DF9114
:1008B000CF911F910F91FF90EF90DF90CF90BF905D
:1008C000AF900C94F80180E49CE9F7019183808358
:1008D0008FEF8883DF91CF911F910F91FF90EF9061
:1008E000DF90CF90BF90AF9008951F920F920FB6F8
:1008F0000F9211242F933F938F939F93AF93BF93A6
:100900008091290290912A02A0912B02B0912C0291
:100910003091280223E0230F2D3758F50196A11DB1
:10092000B11D209328028093290290932A02A0935C
:100930002B02B0932C0280912D0290912E02A09157
:100940002F02B09130020196A11DB11D80932D029E
:1009500090932E02A0932F02B0933002BF91AF91DB
:100960009F918F913F912F910F900FBE0F901F90ED
:10097000189526E8230F0296A11DB11DD2CF1F9214
:100980000F920FB60F9211240BB60F922F933F9335
:100990004F935F936F937F938F939F93AF93BF9387
:1009A000EF93FF9381E392E00E94FB02FF91EF91AE
:1009B000BF91AF919F918F917F916F915F914F9177
:1009C0003F912F910F900BBE0F900FBE0F901F9075
:1009D00018951F920F920FB60F9211240BB60F921B
:1009E0002F938F939F93EF93FF93E0914102F091A8
:1009F00042028081E0914702F091480282FD1DC0D1
:100A0000908180914A028F5F8F7320914B028217F1
:100A100041F0E0914A02F0E0EF5CFD4F958F80934A
:100A20004A02FF91EF919F918F912F910F900BBEF2
:100A30000F900FBE0F901F9018958081F2CF1F92DC
:100A40000F920FB60F9211240BB60F922F933F9374
:100A50004F935F936F937F938F939F93AF93BF93C6
:100A6000EF93FF9348E251E064E271E090E080E0B0
:100A70000E94BB03FF91EF91BF91AF919F918F9126
:100A80007F916F915F914F913F912F910F900BBE8E
:100A90000F900FBE0F901F9018951F920F920FB6D8
:100AA0000F9211240BB60F922F933F934F935F93A6
:100AB0006F937F938F939F93AF93BF93EF93FF9326
:100AC00048EA50E064EA70E083E090E00E94BB03F3
:100AD000FF91EF91BF91AF919F918F917F916F9116
:100AE0005F914F913F912F910F900BBE0F900FBED2
:100AF0000F901F9018951F920F920FB60F9211240E
:100B00000BB60F922F933F934F935F936F937F9307
:100B10008F939F93AF93BF93EF93FF9348E950E078
:100B200064E970E082E090E00E94BB03FF91EF91E6
:100B3000BF91AF919F918F917F916F915F914F91F5
:100B40003F912F910F900BBE0F900FBE0F901F90F3
:100B500018951F920F920FB60F9211240BB60F9299
:100B60002F933F934F935F936F937F938F939F93B5
:100B7000AF93BF93EF93FF9348E850E064E870E0D1
:100B800081E090E00E94BB03FF91EF91BF91AF9194
:100B90009F918F917F916F915F914F913F912F9195
:100BA0000F900BBE0F900FBE0F901F901895CF9215
:100BB000DF92EF92FF920F931F93E82FF92F05C05A
:100BC000015011092109310961F19081962394178F
:100BD000B9F305C0015011092109310911F19081C2
:100BE00096239413F7CFC12CD12CE12CF12C0AC001
:100BF0008FEFC81AD80AE80AF80A0C151D052E0549
:100C00003F0579F080818623841791F36C2D7D2D2B
:100C10008E2D9F2D1F910F91FF90EF90DF90CF9021
:100C2000089560E070E080E090E01F910F91FF90E8
:100C3000EF90DF90CF90089510923402109233021B
:100C400088EE93E0A0E0B0E0809335029093360206
:100C5000A0933702B093380284E192E0909332027D
:100C60008093310285EC90E090933E0280933D02A8
:100C700084EC90E09093400280933F0280EC90E0FF
:100C8000909342028093410281EC90E09093440261
:100C90008093430282EC90E0909346028093450259
:100CA00086EC90E0909348028093470210924A02AB
:100CB00010924B0210924C0210924D0280915E03F2
:100CC000803398F491E0980F90935E0380935F03D4
:100CD00090E0FC01EE0FFF1FE80FF91FE253FD4FFC
:100CE00088EB9BE09283818308958FEF80935F036D
:100CF0000895789484B5826084BD84B5816084BD94
:100D000085B5826085BD85B5816085BD80916E00A9
:100D1000816080936E0010928100809181008260DA
:100D20008093810080918100816080938100809117
:100D300080008160809380008091B1008460809306
:100D4000B1008091B00081608093B00080919100EB
:100D500082608093910080919100816080939100E6
:100D6000809190008160809390008091A1008260CA
:100D70008093A1008091A10081608093A100809167
:100D8000A00081608093A000809121018260809307
:100D900021018091210181608093210180912001B6
:100DA00081608093200180917A00846080937A0032
:100DB00080917A00826080937A0080917A008160CD
:100DC00080937A0080917A00806880937A001092F4
:100DD000C10008E0E02E02E0F02E08E012E0C0E0E2
:100DE000D2E08881229661E00E942602F80180818B
:100DF0000E5F1F4F62E00E942602EC16FD0689F787
:100E000061E089E00E94260261E08AE00E942602F9
:100E100061E08BE00E94260261E086E00E942602EB
:100E200060E087E00E94260261E088E00E942602DE
:100E300080915F03803308F052C061E08CE00E9433
:100E4000260280915F03282F30E0F901EE0FFF1F8B
:100E5000E20FF31FE253FD4F9081907C9C609083E2
:100E600010926003109261032CE0622F0E948609A9
:100E7000829FB001112430E020E0AB01420F531FEC
:100E8000FA01EE0FFF1FE40FF51FE253FD4F9081B3
:100E900096FD17C02F5F3F4F2C30310571F7813021
:100EA00009F080C11092800082E08093810010924E
:100EB000850010928400B19A80916F0082608093C7
:100EC0006F00E0915F038E2F90E0FC01EE0FFF1F9B
:100ED000E80FF91FE253FD4F80818064808362E058
:100EE00085E00E942602E0914102F091420282E0F8
:100EF0008083E0913D02F0913E021082E0913F023A
:100F0000F09140028FEC808310924902E0914502FB
:100F1000F091460286E08083E0914302F091440222
:100F2000808180618083E0914302F091440280815E
:100F300088608083E0914302F09144028081806860
:100F40008083E0914302F091440280818F7D808311
:100F500022242394B4EB8B2E912CA12CB12C00E0F5
:100F600012E0C8E0D2E0888122960E94CF01F80109
:100F700020810E5F1F4F61E0892B09F060E0822F16
:100F80000E94F80180E192E08C179D0761F7809143
:100F90007B00877F80937B0090E490937C0080911E
:100FA0007A00806480937A0080917A0086FDFCCF7D
:100FB000A0917800B09179002FEF30E00E949A095B
:100FC0002FEF33E040E050E00E94230961E089E028
:100FD000253531050CF012C10E94260260E089E03F
:100FE0000E94F80161E08AE00E94260260E08AE047
:100FF0000E94F80161E08BE00E94260261E08BE034
:101000000E94F80160E086E00E94F80183E090E031
:101010000197F1F761E086E00E94F80183E290E039
:101020000197F1F760E086E00E94F801E3EEF1E05D
:101030006491EDE9F1E08491E82FF0E0EE0FFF1FFD
:10104000E458FE4F8591949100E412E42FE030E0E3
:10105000462F0E94D705611571058105910559F04C
:101060006F5F7F4F8F4F9F4F9F706838744081052F
:10107000910508F0E6C061E088E00E94F80185E093
:101080000E94CF0133243394009709F0312C00974C
:1010900009F083C02091270221117FC020912602F0
:1010A000222520932602222311F08AE590E07090F9
:1010B0005F032FE2271508F44BC02091610308E578
:1010C00012E0021B110927FD1395000F111F000FDD
:1010D000111F20916003C8E8D0E0C21BD10927FD91
:1010E000D395CC0FDD1FCC0FDD1F6E010D2E000C34
:1010F000EE08FF089801012E000C440B550B2C192B
:101100003D094E095F09DC010E944D09A5019401CA
:101110000E942309C20ED31EE41EF51ECC16DD0666
:101120002CF0E801C016D1060CF4E6012297CC0F92
:10113000DD1F4FB7F894272D30E0C901880F991FA4
:10114000820F931FFC01E253FD4FD283C1834FBF37
:101150000E9462022B013C018CE2C82EDD24D39454
:10116000E12CF12C0E946202641975098609970925
:10117000683E734081059105A8F381E0C81AD10843
:10118000E108F10898EE490E93E0591E611C711CAC
:10119000C114D104E104F10429F7309227020E941E
:1011A0008A03DDCE823061F410929000809391002A
:1011B000109295001092940088BB8093710081CEAC
:1011C000833069F41092A00082E08093A100109215
:1011D000A5001092A40089BB8093720072CE811189
:1011E00070CE1092200182E080932101109225019F
:1011F000109224018ABB8093730063CE2A3A310592
:10120000A4F40E94260261E089E00E94F80161E0F6
:101210008AE00E94260261E08AE00E94F80161E013
:101220008BE00E94260260E0EACE0E94260261E086
:1012300089E00E94F80161E08AE00E94260260E0F5
:10124000EBCF60E019CF052E97FB1EF400940E94AF
:101250003A0957FD07D00E94550907FC03D04EF408
:101260000C943A0950954095309521953F4F4F4F3A
:101270005F4F089590958095709561957F4F8F4F42
:101280009F4F08950E947709A59F900DB49F900DE0
:10129000A49F800D911D11240895B7FF0C9442095D
:1012A0000E944209821B930B0895A1E21A2EAA1BE9
:1012B000BB1BFD010DC0AA1FBB1FEE1FFF1FA21706
:1012C000B307E407F50720F0A21BB30BE40BF50B03
:1012D000661F771F881F991F1A9469F7609570958C
:1012E000809590959B01AC01BD01CF010895A29F0F
:1012F000B001B39FC001A39F700D811D1124911DEA
:10130000B29F700D811D1124911D0895991B79E0E4
:1013100004C0991F961708F0961B881F7A95C9F785
:1013200080950895EE0FFF1F881F8BBF0790F691E1
:10133000E02D19940E947709B7FF0895821B930B43
:061340000895F894FFCFB0
:10134600160018001A001C00170019001B001D00CB
:10135600000000001D038702B4026A03E502C3020F
:02136600D702AC
:00000001FF
